:10000000403C0820412A03006DF0020075F0020018
:100010008DF002007DF0020085F002000EE7E5DFC2
:1000200095F0020095F0020095F0020095F00200B4
:1000300095F0020095F00200E3A90000890201009A
:100040004DD9000057D9000061D900006BD90000DC
:1000500075D900007FD9000089D9000093D900002C
:100060009DD90000A7D90000B1D90000BBD900007C
:10007000C5D90000CFD90000D9D90000E3D90000CC
:10008000EDD90000F7D9000001DA00000BDA00001A
:1000900015DA00001FDA000029DA000033DA000068
:1000A0003DDA000047DA000051DA00005BDA0000B8
:1000B00065DA00006FDA000079DA000083DA000008
:0C00C0008DDA000097DA0000A1DA0000E1
:0402FC0055550BB099
:10030000F60000001844432D3445202844696769ED
:1003100074616C20436F6D7061737329000000007D
:1003200000000000000000000000000000000000CD
:1003300000000000000000000000000000000000BD
:1003400000000000000000000000000000000000AD
:1003500000000000010A756E646566696E656400E0
:10036000000000000000000000000000000000008D
:10037000000000000000000000000000000000007D
:10038000000000000000000000000000000000006D
:10039000000000000000000000000000000000005D
:1003A00000000000000A756E646566696E65640091
:1003B000000000000000000000000000000000003D
:1003C000000000000000000000000000000000002D
:1003D000000000000000000000000000000000001D
:1003E000000000000000000000000000000000000D
:1003F00000000000000A756E646566696E65640041
:1004000000000000000000000000080000000000E4
:1004100000000000000000000000000000000000DC
:1004200000000000000000000000000000000000CC
:10043000000000000000000000E0FB44000000009D
:1004400000000000000000000000000000000000AC
:10045000000000000000000000000000000000009C
:10046000000000000000000000000000000000008C
:10047000000000000000000000000000000000007C
:10048000000000000000000000000000000000006C
:10049000000000000000000009000000080000004B
:1004A0002000000000000000090000002000000003
:1004B000200000000B0000002000000040000000B1
:1004C00025000000200000006000000098000000EF
:1004D0002000000080000000160000006000000006
:1004E000A0000000180000006000000000010000F3
:1004F0001A0000006000000060010000E30000003E
:1005000020000000C001000000000000000000000A
:1005100000000000000000000000000000000000DB
:1005200000000000000000000000000000000000CB
:1005300000000000000000000000000000000000BB
:1005400000000000000000000000000000000000AB
:10055000000000000000000000000000000000009B
:10056000070000000800000020000000000000005C
:100570000900000020000000200000000A00000028
:1005800020000000400000000D00000020000000DE
:10059000600000000E00000020000000800000004D
:1005A0000F00000020000000A000000098000000E4
:1005B00020000000C000000000000000000000005B
:1005C000000000000000000000000000000000002B
:1005D000000000000000000000000000000000001B
:1005E000000000000000000000000000000000000B
:1005F00000000000000000000000000000000000FB
:1006000000000000000000000000000000000000EA
:1006100000000000000000000000000000000000DA
:1006200000000000000000000700000008000000BB
:100630002000000000000000090000002000000071
:10064000200000000A000000200000004000000020
:100650000D00000020000000600000000E000000FF
:1006600020000000800000000F00000020000000BB
:10067000A00000009800000020000000C000000062
:10068000000000000000000000000000000000006A
:10069000000000000000000000000000000000005A
:1006A000000000000000000000000000000000004A
:1006B000000000000000000000000000000000003A
:1006C000000000000000000000000000000000002A
:1006D000000000000000000000000000000000001A
:1006E000000000000000000000000000000000000A
:1006F000000000000000000000007A440000FA43FF
:1007000000007A44CDCCCC3ECDCCCC3E00007A4427
:1007100000007A44000000006F12033B00007A449E
:100720000000FA4300007A44CDCCCC3ECDCCCC3E88
:1007300000007A4400007A440000000063D6803D47
:1007400000000000000000000000000000000000A9
:100750000000000000000000000000000000000099
:1007600001438EBD000000000000000000000000FA
:100770000000000000000000000000000000000079
:10078000000000003917853D000000000000000057
:100790000000000000000000000000000000000059
:1007A00000000000000000000000803F000000008A
:1007B00000000000000000000000803F000000007A
:1007C00000000000000000000000803F000000006A
:1007D000000000000000000063D6803D0000000023
:1007E0000000000000000000000000000000000009
:1007F00000000000000000000000000001438EBD6A
:1008000000000000000000000000000000000000E8
:1008100000000000000000000000000000000000D8
:100820003917853D000000000000000000000000B6
:1008300000000000000000000000000000000000B8
:1008400000000000000000000000000000000000A8
:100850000000000000000000000000000000000098
:1008600000000000000000000000803F00000000C9
:1008700000000000000000000000803F00000000B9
:1008800000000000000000000000803F00000000A9
:100890000000803F000000000000803F00000000DA
:1008A0000000803F0000FA3E000000000000000051
:1008B0000000000000000000000000000000000038
:1008C00000000000000000000000FABE0000000070
:1008D0000000000000000000000000000000000018
:1008E0000000000000000000000000000000FA3ED0
:1008F00000000000000000000000000000000000F8
:1009000000000000000000000000000000000000E7
:100910000000803F00000000000000000000000018
:100920000000803F00000000000000000000000008
:100930000000803F000000000000000000000000F8
:100940000000FA3E0000000000000000000000006F
:100950000000000000000000000000000000000097
:10096000000000000000FABE0000000000000000CF
:100970000000000000000000000000000000000077
:1009800000000000000000000000FA3E000000002F
:100990000000000000000000000000000000000057
:1009A0000000000000000000000000000000000047
:1009B0000000000000000000000000000000000037
:1009C0000000000000000000000000000000000027
:1009D0000000803F00000000000000000000000058
:1009E0000000803F00000000000000000000000048
:1009F0000000803F00000000000000000000000038
:100A000000000000000000000000000000000000E6
:100A100000000000000000000000000000000000D6
:100A200000000000000000000000000000000000C6
:100A300000000000000000000000000000000000B6
:100A400000000000000000000000000000000000A6
:100A50000000000000000000000000000000000096
:100A60000000000000000000000000000000000086
:100A70000000000000000000000000000000000076
:100A80000000000000000000000000000000000066
:100A90000000000000000000000000000000000056
:100AA0000000000000000000000000000000000046
:100AB0000000000000000000000000000000000036
:100AC0000000000000000000000000000000000026
:100AD0000000000000000000000000000000000016
:100AE0000000000000000000000000000000000006
:100AF00000000000000000000000000000000000F6
:100B000000000000000000000000000000000000E5
:100B100000000000000000000000000000000000D5
:100B200000000000000000000000000000000000C5
:100B300000000000000000000000000000000000B5
:100B400000000000000000000000000000000000A5
:100B50000000000000000000000000000000000095
:100B60000000803F000000000000000000000000C6
:100B70000000803F000000000000000000000000B6
:100B80000000803F596E053F00000000207A5A3F68
:100B90000000803F00000000000000000000000096
:100BA0000000000000000000000000000000000045
:100BB0000000000000000000000000000000000035
:100BC0000000000000000000000000000000000025
:100BD0000000000000000000000000000000000015
:100BE0000000000000000000000000000000000005
:100BF000000100000000C8410000024500000000A4
:100C0000000000000040D944000000000000000087
:100C10000090624500000000000000000000C84194
:100C200000000C420000000000000000000000C1B5
:100C300000000000000000000000A0C10000000053
:100C400000000000000000000000000000000000A4
:100C50000000000000000000000000000000000094
:100C600000000000000000000000C8410000024534
:100C700000000000000000000040D9440000000017
:100C8000000000000090624500000000000000002D
:100C90000000C84100000C420000000000000000FD
:100CA000000000C100000000000000000000A0C122
:100CB0000000000000000000000000000000000034
:100CC0000000000000000000000000000000000024
:100CD000000000000000000000000000000000070D
:100CE000A00F000010000000000000000000000045
:100CF00000000000040000000000000000000000F0
:100D00000000000000000000000000000000803F24
:100D10000000000000000000000000000000803F14
:100D20000000000000000000000000000000803F04
:100D3000000000000A0000000A000000000000009F
:100D400000C0794400C07944804FC347804FC347F7
:100D5000000000000000F041000000000000000062
:100D60000000000000000000000000000000000083
:100D70000000000000000000000000000000000073
:100D80000000000000000000000000000000000063
:100D90000000000000000000000000000000000053
:100DA0000000000000000000000000000000000043
:100DB0000000000000000000000000000000000033
:100DC0000000000000000000000000000000000023
:100DD0000000000000000000000000000000000013
:100DE0000000000000000000000000000000000003
:100DF00000000000000000000000000000000000F3
:100E000000000000000000000000000000000000E2
:100E100000000000000000000000000000000000D2
:100E200000000000000000000000000000000000C2
:100E300000000000000000000000000000000000B2
:100E400000000000000000000000000000000000A2
:100E50000000000000000000000000000000000092
:100E60000000000000000000000000000000000082
:100E700000000000000000008FC2753DB00F21355A
:100E8000B00F21350000000000000000000000004D
:100E90000000000000000000000000000000E1432E
:100EA0000000000000000000000000000AD7233C02
:100EB0000000000000E0FB440000000017B7D1383C
:100EC0000100000000000000000000000000000021
:100ED0000000000000000000000000000000000012
:100EE0000000000000000000000000000000000002
:100EF00000000000000000000000344317B7D138A4
:0C0F00000000000000003443DCFE34124E
:100F0C00002200F20700037813F07F0353EAC212A9
:100F1C0003781B0602D40A60401C01E0401CF2E777
:100F2C00704770B504000D002878401C0600F6B21E
:100F3C0032002900200002F039FBF6B2301970BDE6
:100F4C002DE9F84F05000E00170098460A9CA9469B
:100F5C00022089F8000019F10109CB4619F10109A9
:100F6C0031004846FFF7DDFF814689F8008019F112
:100F7C000109E4B2002C04D039004846FFF7D1FF38
:100F8C008146B9EB0B00401E82468BF800A0484608
:100F9C00BDE8F28F2DE9F74F88B01C0000200090BF
:100FAC0000208146002082462068007882450BDABA
:100FBC000C20A16800FB0A100068002801D019F170
:100FCC0001091AF1010AEFE709988346CDF804B03C
:100FDC001BF1010B0A995846FFF7A3FF8346CDF886
:100FEC0010B01BF1010B00208246CA454ADA0C20D6
:100FFC00A16800FB0A100168089802F0F9FB0600D2
:10100C00002E3CD07079401E012806D9C01E032842
:10101C0003D9001F012815D931E0310006A803F0CF
:10102C0080FB069803900C20A16800FB0A10037942
:10103C00039A0C20A16800FB0A108168584603F043
:10104C005FFE1CE0706A0290310006A803F069FB99
:10105C000698804600200700029887420EDA20236B
:10106C0058F827200C20A16800FB0A10806810EBB0
:10107C004711584603F044FE7F1CEDE7FFE71AF1D9
:10108C00010AB2E70C20A16800FB091050F8040C0F
:10109C000C21A26801FB092111F8081C081800900A
:1010AC000098202190FBF1F005006801009988421E
:1010BC0000DA6D1C1BEB850B049805700198BBEBDB
:1010CC000000401E8DF8140001989DF8141001705A
:1010DC0058460BB0BDE8F08F2DE9F84F05000E0017
:1010EC0017009846DDF828900B9CAB4600208BF837
:1010FC0000001BF1010BDA461BF1010B31005846C5
:10110C00FFF70FFF83463900584603F0CDFE1BF165
:10111C00040B4146584603F0C7FE1BF1040BE4B226
:10112C00002C05D04946584603F0BEFE1BF1040BBB
:10113C00BBEB0A00401E8DF800009DF800008AF8F9
:10114C0000005846BDE8F28F2DE9F34F81B0150031
:10115C001E000C9FDDF834800E9C01988246002006
:10116C008AF800001AF1010AD1461AF1010A029913
:10117C005046FFF7D6FE82468AF800501AF1010A53
:10118C003100504603F090FE1AF1040A3900504623
:10119C0003F08AFE1AF1040AE4B2002C0FD00020EE
:1011AC008346AB450BD2D8F80010504603F07CFEBA
:1011BC0018F104081AF1040A1BF1010BF1E7BAEB60
:1011CC000900401E8DF800009DF8000089F8000011
:1011DC005046BDE8FE8F2DE9F84F05000E001700B4
:1011EC009846DDF828900B9CAB4603208BF800004A
:1011FC001BF1010BDA461BF1010B31005846FFF7CE
:10120C0090FE8346380003F069FE0100584603F057
:10121C004BFE1BF1040B404603F060FE01005846E8
:10122C0003F042FE1BF1040BE4B2002C08D048463C
:10123C0003F054FE0100584603F036FE1BF1040B7C
:10124C00BBEB0A00401E8DF800009DF800008AF8E8
:10125C0000005846BDE8F28F2DE9F34F81B0150020
:10126C001E000C9FDDF834800E9C019882460320F2
:10127C008AF800001AF1010AD1461AF1010A029902
:10128C005046FFF74EFE82468AF800501AF1010ACA
:10129C003100504603F02EFE1AF1040A3900504674
:1012AC0003F028FE1AF1040AE4B2002C0FD000203F
:1012BC008346AB450BDAD8F80010504603F01AFE03
:1012CC0018F104081AF1040A1BF1010BF1E7BAEB4F
:1012DC000900401E8DF800009DF8000089F8000000
:1012EC005046BDE8FE8F2DE9F14F82B00E0017007D
:1012FC0098460C9C0D9D0298834601208BF80000AB
:10130C001BF1010BD9461BF1010B31005846FFF7BD
:10131C0008FE83468BF800701BF1010B00208246FF
:10132C00FFB2574508DB58F82A105846FFF7F9FD6D
:10133C0083461AF1010AF3E7EDB2002D03D08BF8C6
:10134C0000401BF1010BBBEB0900401E8DF80000A7
:10135C009DF8000089F800005846BDE8FE8FFCB4EB
:10136C00002634000D00002903D100260670401C15
:10137C0023E0002D06D000AE15F07F07A755641CA6
:10138C00ED09F6E7012C04D111F07F060670401C24
:10139C0013E0661E330000263200661EB24208DAE5
:1013AC0000AE9E5D56F080060670401C5B1E521C03
:1013BC00F3E700AE9E5D0670401CF6BC704770B53E
:1013CC0004000D00160001202070641C0021200078
:1013DC0003F06AFD241D00202070641C2670641C20
:1013EC0029002000FFF7BBFF0400200070BDF8B5FA
:1013FC0004000D0016002A00D2B221003000FFF7C5
:10140C00DEFF07003800F2BD70B504000D001600B9
:10141C0001202070641C0021200003F045FD241DD8
:10142C0006202070641C2670641C29002000FFF725
:10143C0096FF0400200070BDF8B504000D001600E6
:10144C002A00D2B221003000FFF7DEFF070038007F
:10145C00F2BD2DE9F54F85B00D001E00109FDDF893
:10146C004480DDF84890DDF84CA0149C4946EDB260
:10147C00280003F0D0FD050052469DF81410EDB283
:10148C002800FFF7B4FF0490049883460390584655
:10149C0010F1010BE4B2002C01D0012100E000217D
:1014AC0051F01001017001200190009643463A0062
:1014BC0006995846FFF710FE83460398BBEB0000D5
:1014CC00029002991AF1010003F0EEFCBBEB0A004A
:1014DC0007B0BDE8F08F2DE9F54F85B00D001E006B
:1014EC00109FDDF84480DDF84890DDF84CA0149C8A
:1014FC004946EDB2280003F08EFD050052469DF8DA
:10150C001410EDB22800FFF772FF04900498834684
:10151C000390584610F1010BE4B2002C01D00121CC
:10152C0000E0002151F010010170012001900096A3
:10153C0043463A0006995846FFF74DFE83460398FA
:10154C00BBEB0000029002991AF1010003F0ACFC15
:10155C00BBEB0A0007B0BDE8F08F2DE9FD4F86B05C
:10156C000D00129E139FDDF85080DDF85490DDF8CD
:10157C0058A0179C4946EDB2280003F04CFD05001D
:10158C0052469DF81810EDB22800FFF730FF059079
:10159C00059883460490584610F1010BE4B2002CD8
:1015AC0001D0012100E0002151F020010170012047
:1015BC000290CDF8048000973300089A079958469A
:1015CC00FFF7C2FD83460498BBEB00000390039920
:1015DC001AF1010003F068FCBBEB0A0009B0BDE88E
:1015EC00F08F2DE9FD4F86B00D00129E139FDDF894
:1015FC005080DDF85490DDF858A0179C4946EDB2A8
:10160C00280003F008FD050052469DF81810EDB2B5
:10161C002800FFF7ECFE0590059883460490584689
:10162C0010F1010BE4B2002C01D0012100E00021EB
:10163C0051F02001017001200290CDF80480009738
:10164C003300089A07995846FFF706FE834604981C
:10165C00BBEB0000039003991AF1010003F024FC8A
:10166C00BBEB0A0009B0BDE8F08F2DE9F54F85B052
:10167C000E001F00109CDDF84480DDF84890DDF86A
:10168C004CA0149D4946300003F0C5FC06005246A0
:10169C009DF814103000FFF7AAFE049004988346BE
:1016AC000390584610F1010BEDB2002D01D0012131
:1016BC0000E0002151F01001017001200190FFB2F7
:1016CC00009743462200D2B206995846FFF70BFE0C
:1016DC0083460398BBEB0000029002991AF10100BB
:1016EC0003F0E2FBBBEB0A0007B0BDE8F08F2DE97D
:1016FC00F14F84B00E00170098460E9CDDF83C901C
:10170C00DDF840A0119D4946300003F084FC060032
:10171C0052469DF810103000FFF769FE03900398B5
:10172C0083460290584610F1010BEDB2002D01D00A
:10173C00012100E0002151F010010170B8F1000FFF
:10174C0002D1DFF8500E8046012000902300DBB25E
:10175C00424639005846FFF7F3FB83460298BBEB31
:10176C000000019001991AF1010003F09DFBBBEB05
:10177C000A0005B0BDE8F08F2DE9F14F84B00D00E3
:10178C0016001F00DDF83880DDF83C90DDF840A035
:10179C00119C4946300003F03EFC060052462900DD
:1017AC00C9B23000FFF723FE0290029883460190E5
:1017BC00584610F1010BE4B2002C01D0012100E0DD
:1017CC00002151F08001017043463A0059460498BB
:1017DC00FFF7E0FB83460198BBEB000000900099FB
:1017EC001AF1010003F060FBBBEB0A0005B0BDE889
:1017FC00F08F2DE9F54F85B00D001E00109FDDF820
:10180C004480DDF84890DDF84CA0149C4946EDB2BC
:10181C00280003F000FC050052469DF81410EDB2B0
:10182C002800FFF709FE049004988346039058465D
:10183C0010F1010BE4B2002C01D0012100E00021D9
:10184C0051F01001017000200190009643463A00BF
:10185C0006995846FFF740FC83460398BBEB000003
:10186C00029002991AF1010003F01EFBBBEB0A0077
:10187C0007B0BDE8F08F2DE9F54F85B00D001E00C7
:10188C00109FDDF84480DDF84890DDF84CA0149CE6
:10189C004946EDB2280003F0BEFB050052469DF808
:1018AC001410EDB22800FFF7C7FD0490049883468E
:1018BC000390584610F1010BE4B2002C01D0012129
:1018CC0000E0002151F01001017000200190009601
:1018DC0043463A0006995846FFF77DFC8346039829
:1018EC00BBEB0000029002991AF1010003F0DCFA44
:1018FC00BBEB0A0007B0BDE8F08F2DE9FD4F86B0B9
:10190C000D00129E139FDDF85080DDF85490DDF829
:10191C0058A0179C4946EDB2280003F07CFB05004B
:10192C0052469DF81810EDB22800FFF785FD059082
:10193C00059883460490584610F1010BE4B2002C34
:10194C0001D0012100E0002151F0200101700020A4
:10195C0002900196CDF800803B00089A07995846F2
:10196C00FFF7F2FB83460498BBEB0000039003994E
:10197C001AF1010003F098FABBEB0A0009B0BDE8BC
:10198C00F08F2DE9FD4F86B00D00129E139FDDF8F0
:10199C005080DDF85490DDF858A0179C4946EDB204
:1019AC00280003F038FB050052469DF81810EDB2E4
:1019BC002800FFF741FD0590059883460490584692
:1019CC0010F1010BE4B2002C01D0012100E0002148
:1019DC0051F020010170002002900196CDF800809A
:1019EC003B00089A07995846FFF736FC8346049843
:1019FC00BBEB0000039003991AF1010003F054FAB9
:101A0C00BBEB0A0009B0BDE8F08F2DE9F54F85B0AE
:101A1C000E001F00109CDDF84480DDF84890DDF8C6
:101A2C004CA0149D4946300003F0F5FA06005246CE
:101A3C009DF814103000FFF7FFFC049004988346C7
:101A4C000390584610F1010BEDB2002D01D001218D
:101A5C0000E0002151F01001017000200190FFB254
:101A6C00009743462200D2B206995846FFF73BFC3A
:101A7C0083460398BBEB0000029002991AF1010017
:101A8C0003F012FABBEB0A0007B0BDE8F08F2DE9AA
:101A9C00F14F82B00C0015001E0000208046002083
:101AAC0083462868007883450BDA0C20A96800FB74
:101ABC000B100068002801D018F101081BF1010B74
:101ACC00EFE70298824657461AF1010A2100504668
:101ADC00FFF727FA824628798AF800001AF1010AE2
:101AEC00002083462879834527DA00208146C345A8
:101AFC001ADA0C20A96800FB0B10806800058146DF
:101B0C000C20A96800FB0B10007959EA0039310050
:101B1C000C20AA6800FB0B20006803F07CFA8005FF
:101B2C00800D50EA090081464946504603F0BCF945
:101B3C001AF1040A1BF1010BD4E7BAEB0700401EA3
:101B4C008DF800009DF8000038705046BDE8FE8FFF
:101B5C002DE9FE4F05000E0017009846DDF8309079
:101B6C00DDF834A00E9C4946300003F054FA060010
:101B7C0052462900C9B23000FFF75EFC0290029871
:101B8C0083460190584610F1010BE4B2002C01D0B1
:101B9C00012100E0002151F0800101704B464246CA
:101BAC0039005846FFF773FF83460198BBEB0000E2
:101BBC00009000991AF1010003F076F9BBEB0A00D2
:101BCC00BDE8FE8F2DE9F14F84B00E00170098464A
:101BDC000E9CDDF83C90DDF840A0119D494630008C
:101BEC0003F019FA060052469DF810103000FFF76A
:101BFC0023FC0390039883460290584610F1010B86
:101C0C00EDB2002D01D0012100E0002151F01001B6
:101C1C000170B8F1000F02D1DFF87809804600207E
:101C2C0000902300DBB2424639005846FFF788F992
:101C3C0083460298BBEB0000019001991AF1010058
:101C4C0003F032F9BBEB0A0005B0BDE8F08F2DE9CB
:101C5C00F14F8CB00C0015001E00169F200001F0F7
:101C6C00E8FC10F0010800208046200001F0DFFCA9
:101C7C0000283ED1300003F0C2F982469DF85C008A
:101C8C0000281AD0200001F0D6FC8346200001F079
:101C9C00CEFC5FFA88F8CDF8108003970296CDF849
:101CAC0004A00021009153465A460100C9B22800F5
:101CBC00C0B2FFF7CEFB814619E0200001F0BDFC5D
:101CCC008346200001F0B3FC01005FFA88F8CDF8E0
:101CDC00108003970296CDF804A000200090534684
:101CEC005A46C9B22800C0B2FFF7B3FB814648463A
:101CFC00FDE1200001F0A3FC012811D0022855D0F1
:101D0C00032800F09980042800F0D680082800F001
:101D1C001981092800F060810A2800F0A781DFE111
:101D2C00200001F08EFC08909DF85C0000281ED06D
:101D3C00200001F080FC8246200001F078FC5FFA64
:101D4C0088F8CDF81080039702960899896801915C
:101D5C00089949680091089909680B685246010076
:101D6C00C9B22800C0B2FFF774FB81461DE0200009
:101D7C0001F063FC8246200001F059FC5FFA88F800
:101D8C00CDF81080039702960899896801910899FB
:101D9C0049680091089909680B6852460100C9B25C
:101DAC002800C0B2FFF755FB81469FE1200001F0EF
:101DBC0050FC06909DF85C0000281ED0200001F01D
:101DCC003AFC8246200001F032FC5FFA88F8CDF82C
:101DDC0010800397029606998968019106990979F2
:101DEC000091069909680B785246C0B20100280090
:101DFC00C0B2FFF73AFC81461DE0200001F01DFC4B
:101E0C008246200001F013FC5FFA88F8CDF81080B0
:101E1C0003970296069989680191069909790091B0
:101E2C00069909680B785246C0B201002800C0B26E
:101E3C00FFF71BFC814659E1200001F00CFC0990D6
:101E4C009DF85C0000281BD0200001F0F4FB8246BA
:101E5C00200001F0ECFB5FFA88F8CDF80C800297BB
:101E6C00019609994968C9B2009109990B685246C3
:101E7C00C0B201002800C0B2FFF739FC81461AE05D
:101E8C00200001F0DAFB8246200001F0D0FB5FFA63
:101E9C0088F8CDF80C800297019609994968C9B267
:101EAC00009109990B685246C0B201002800C0B2DB
:101EBC00FFF71DFC814619E1200001F0C8FB0790DB
:101ECC009DF85C0000281ED0200001F0B4FB824677
:101EDC00200001F0ACFB5FFA88F8CDF81080039776
:101EEC0002960799896801910799496800910799A9
:101EFC0009680B6852460100C9B22800C0B2FFF74E
:101F0C00EAFA81461DE0200001F097FB8246200092
:101F1C0001F08DFB5FFA88F8CDF8108003970296DC
:101F2C00079989680191079949680091079909688F
:101F3C000B6852460100C9B22800C0B2FFF7CBFAB9
:101F4C008146D3E0200001F07EFB82469DF85C00C8
:101F5C00002820D0200001F06EFB8346200001F009
:101F6C0066FB5FFA88F8CDF8148004970396DAF8CC
:101F7C0000100291DAF80C100191DAF808100091B7
:101F8C00DAF804305A460100C9B22800C0B2FFF793
:101F9C00E4FA81461FE0200001F04FFB834620004D
:101FAC0001F045FB5FFA88F8CDF81480049703968E
:101FBC00DAF800100291DAF80C100191DAF8081036
:101FCC000091DAF804305A460100C9B22800C0B2B8
:101FDC00FFF7C3FA814689E0200001F036FB824608
:101FEC009DF85C00002820D0200001F024FB8346E3
:101FFC00200001F01CFB5FFA88F8CDF814800497E0
:10200C000396DAF800100291DAF80C100191DAF864
:10201C0008100091DAF804305A460100C9B22800C1
:10202C00C0B2FFF7DEFA81461FE0200001F005FB8D
:10203C008346200001F0FBFA5FFA88F8CDF8148093
:10204C0004970396DAF800100291DAF80C1001915B
:10205C00DAF808100091DAF804305A460100C9B2D7
:10206C002800C0B2FFF7BDFA81463FE0200001F026
:10207C00F4FA0A909DF85C00002818D0200001F0BA
:10208C00DAFA8246200001F0D2FA02005FFA88F8F0
:10209C00CDF80C80029701960A9800905346D2B264
:1020AC002900C9B20C98FFF767FB814617E02000A6
:1020BC0001F0C3FA8246200001F0B9FA5FFA88F801
:1020CC00CDF80C80029701960A9900915346C0B244
:1020DC0002002900C9B20C98FFF74EFB814605E0BF
:1020EC00DFF8141D4FF4007003F07CF848460DB077
:1020FC00BDE8F08F2DE9F14F8CB00C0015001E00DF
:10210C00169F200001F095FA10F00108002080467F
:10211C00200001F08CFA00283ED1300002F06FFF55
:10212C0082469DF85C0000281AD0200001F083FA4A
:10213C008346200001F07BFA5FFA88F8CDF8108016
:10214C0003970296CDF804A00021009153465A46FD
:10215C000100C9B22800C0B2FFF74BFB814619E061
:10216C00200001F06AFA8346200001F060FA0100B9
:10217C005FFA88F8CDF8108003970296CDF804A08A
:10218C000020009053465A46C9B22800C0B2FFF74F
:10219C0060F981464846F9E1200001F050FA012827
:1021AC0011D0022855D0032800F09980042800F0A3
:1021BC000C81082800F04F81092800F096810A282C
:1021CC0000F0CD80DBE1200001F03BFA08909DF897
:1021DC005C0000281ED0200001F02DFA8246200061
:1021EC0001F025FA5FFA88F8CDF810800397029673
:1021FC0008998968019108994968009108990968BA
:10220C000B6852460100C9B22800C0B2FFF7F1FAC0
:10221C0081461DE0200001F010FA8246200001F0FA
:10222C0006FA5FFA88F8CDF81080039702960899A1
:10223C0089680191089949680091089909680B68A7
:10224C0052460100C9B22800C0B2FFF7D2FA81464B
:10225C009BE1200001F0FDF906909DF85C00002840
:10226C001ED0200001F0E7F98246200001F0DFF9D2
:10227C005FFA88F8CDF81080039702960699896862
:10228C000191069909790091069909680B785246D3
:10229C00C0B201002800C0B2FFF7B7FB81461DE0B9
:1022AC00200001F0CAF98246200001F0C0F95FFA63
:1022BC0088F8CDF8108003970296069989680191E9
:1022CC00069909790091069909680B785246C0B2B3
:1022DC0001002800C0B2FFF798FB814655E12000B1
:1022EC0001F0B9F909909DF85C0000281BD0200082
:1022FC0001F0A1F98246200001F099F95FFA88F803
:10230C00CDF80C800297019609994968C9B20091E1
:10231C0009990B685246C0B201002800C0B2FFF701
:10232C0051FC81461AE0200001F087F9824620001A
:10233C0001F07DF95FFA88F8CDF80C8002970196D0
:10234C0009994968C9B2009109990B685246C0B203
:10235C0001002800C0B2FFF735FC814615E12000D2
:10236C0001F07BF90A909DF85C00002816D0200043
:10237C0001F061F98246200001F059F95FFA88F802
:10238C00CDF80880019700960A9B5246C0B2010016
:10239C002800C0B2FFF7DCFB814615E0200001F0FD
:1023AC004CF98246200001F042F95FFA88F8CDF82A
:1023BC000880019700960A9B5246C0B20100280083
:1023CC00C0B2FFF7C5FB8146DFE0200001F03FF90A
:1023DC0007909DF85C0000281ED0200001F02BF91E
:1023EC008246200001F023F95FFA88F8CDF81080BE
:1023FC00039702960799896801910799496800919A
:10240C00079909680B6852460100C9B22800C0B28E
:10241C00FFF731FA81461DE0200001F00EF98246EB
:10242C00200001F004F95FFA88F8CDF810800397CA
:10243C000296079989680191079949680091079953
:10244C0009680B6852460100C9B22800C0B2FFF7F8
:10245C0012FA814699E0200001F0F5F882469DF8C9
:10246C005C00002820D0200001F0E5F88346200015
:10247C0001F0DDF85FFA88F8CDF814800497039624
:10248C00DAF80C100291DAF808100191DAF8001061
:10249C000091DAF804305A460100C9B22800C0B2E3
:1024AC00FFF72BFA81461FE0200001F0C6F88346A7
:1024BC00200001F0BCF85FFA88F8CDF8148004977E
:1024CC000396DAF80C100291DAF808100191DAF898
:1024DC0000100091DAF804305A460100C9B2280005
:1024EC00C0B2FFF70AFA81464FE0200001F0ADF8C8
:1024FC0082469DF85C00002820D0200001F09BF85B
:10250C008346200001F093F85FFA88F8CDF8148028
:10251C0004970396DAF80C100291DAF8081001917E
:10252C00DAF800100091DAF804305A460100C9B20A
:10253C002800C0B2FFF725FA81461FE0200001F009
:10254C007CF88346200001F072F85FFA88F8CDF829
:10255C00148004970396DAF80C100291DAF808103C
:10256C000191DAF800100091DAF804305A460100B3
:10257C00C9B22800C0B2FFF704FA814605E0DFF8C3
:10258C0078184FF4007002F02DFE48460DB0BDE8EF
:10259C00F08F0000103503002DE9F04104000D0010
:1025AC00260002203070761CB046761C29003000C4
:1025BC00FEF7B7FC0600B6EB0800401E070088F8D3
:1025CC0000703000BDE8F0812DE9F04104000D00F1
:1025DC00260000203070761CB046761C2900300096
:1025EC0002F062FC361DB6EB0800401E070088F8AE
:1025FC0000703000BDE8F0812DE9F04104000D00C1
:10260C00260003203070761CB046761C280002F0A1
:10261C0065FC0100300002F047FC361DB6EB0800EB
:10262C00401E070088F800703000BDE8F0812DE9ED
:10263C00F04704000D001600A24603208AF80000A3
:10264C001AF1010AD0461AF1010A00208AF800009A
:10265C001AF1010A2800401E8AF800001AF1010A3A
:10266C0000208146A94509DA3168504602F042FC47
:10267C00361D1AF1040A19F10109F3E7BAEB080047
:10268C00401E070088F800705046BDE8F0872DE921
:10269C00F04704000D001600A24603208AF8000043
:1026AC001AF1010AD0461AF1010A00208AF800003A
:1026BC001AF1010A2800401E8AF800001AF1010ADA
:1026CC0000208146A94509DA3168504602F0ECFB3E
:1026DC00361D1AF1040A19F10109F3E7BAEB0800E7
:1026EC00401E070088F800705046BDE8F08730B4F3
:1026FC000200100001250570401C0400401C0170F4
:10270C00401C051B6D1E2B00237030BC70472DE93F
:10271C00F34F89B014000020009000208146002067
:10272C0082462068007882450BDA0C20A16800FBF9
:10273C000A100068002801D019F101091AF1010AE8
:10274C00EFE70A988346CDF804B01BF1010BCDF8E6
:10275C0010B01BF1010B00208246CA454ADA0C204E
:10276C00A16800FB0A100168099801F041F8060005
:10277C00002E3CD07079401E012806D9C01E0328BB
:10278C0003D9001F012815D931E0310006A801F04A
:10279C00C8FF069803900C20A16800FB0A1003796F
:1027AC00039A0C20A16800FB0A108168584602F0BD
:1027BC00A7FA1CE0706A0290310006A801F0B1FF84
:1027CC000698804600200700029887420EDA2023E4
:1027DC0058F827200C20A16800FB0A10806810EB29
:1027EC004711584602F08CFA7F1CEDE7FFE71AF10F
:1027FC00010AB2E70C20A16800FB091050F8040C88
:10280C000C21A26801FB092111F8081C0818009082
:10281C000098202190FBF1F0050068010099884296
:10282C0000DA6D1C1BEB850B049805700198BBEB53
:10283C000000401E8DF8140001989DF814100170D2
:10284C0058460BB0BDE8F08FF8B504000D0016002B
:10285C001F0001202070641C0021200002F024FBCA
:10286C00241D2770641C2670641C29002000FEF7B0
:10287C0076FD04002000F2BD2DE9F04104000D00AE
:10288C0016001F003B00DBB22A00D2B22100300040
:10289C00FFF7DAFF80464046BDE8F0812DE9FE4F98
:1028AC0006000F0090469946DDF830A00D9C0E9D59
:1028BC004946FFB2380002F0AEFB07002300DBB242
:1028CC0052463100C9B2FFB23800FFF7D5FF029073
:1028DC00029883460190584610F1010BEDB2002D81
:1028EC0001D0012100E0002151F01001017041469E
:1028FC005846FFF769FE83460198BBEB0000009039
:10290C0000991AF1010002F0CFFABBEB0A00BDE806
:10291C00FE8F2DE9FE4F06000F0090469946DDF81C
:10292C0030A00D9C0E9D4946FFB2380002F073FB9F
:10293C0007002300DBB252463100C9B2FFB23800A7
:10294C00FFF79AFF0290029883460190584610F1C7
:10295C00010BEDB2002D01D0012100E0002151F05E
:10296C001001017041465846FFF746FE8346019818
:10297C00BBEB0000009000991AF1010002F094FAF0
:10298C00BBEB0A00BDE8FE8F2DE9F14F84B00E00C1
:10299C0017009846DDF83890DDF83CA0109C119D8E
:1029AC004946F6B2300002F036FB06002300DBB2DB
:1029BC0052469DF81010F6B23000FFF75DFF029002
:1029CC00029883460190584610F1010BEDB2002D90
:1029DC0001D0012100E0002151F02001017042469C
:1029EC0039005846FFF723FE83460198BBEB0000E5
:1029FC00009000991AF1010002F056FABBEB0A00A4
:102A0C0005B0BDE8F08F2DE9F14F84B00E00170032
:102A1C009846DDF83890DDF83CA0109C119D494695
:102A2C00F6B2300002F0F7FA06002300DBB2524691
:102A3C009DF81010F6B23000FFF71EFF02900298BE
:102A4C0083460190584610F1010BEDB2002D01D0D8
:102A5C00012100E0002151F02001017042463900B3
:102A6C005846FFF714FE83460198BBEB000000901C
:102A7C0000991AF1010002F017FABBEB0A0005B03D
:102A8C00BDE8F08F2DE9FE4F06000F0090469946E9
:102A9C00DDF830A00D9C0E9D4946380002F0BBFAC3
:102AAC0007002300DBB252463100C9B23800FFF7F1
:102ABC00E3FE0290029883460190584610F1010BF8
:102ACC00EDB2002D01D0012100E0002151F01001E8
:102ADC0001704146C9B25846FFF709FE834601987A
:102AEC00BBEB0000009000991AF1010002F0DCF938
:102AFC00BBEB0A00BDE8FE8F2DE9FE4F06000F0070
:102B0C0090469946DDF830A00D9C0E9D4946380044
:102B1C0002F081FA07002300DBB252463100C9B241
:102B2C003800FFF7A9FE02900298834601905846A0
:102B3C0010F1010BEDB2002D01D0012100E00021BC
:102B4C0051F01001017041465846FFF725FD8346B0
:102B5C000198BBEB0000009000991AF1010002F003
:102B6C00A3F9BBEB0A00BDE8FE8F2DE9F14F84B051
:102B7C000E0017009846DDF83890DDF83CA0109C4C
:102B8C00119D4946380002F046FA07002300DBB2DB
:102B9C0052463100C9B23800FFF76EFE029002981F
:102BAC0083460190584610F1010BEDB2002D01D077
:102BBC00012100E0002151F080010170424659468C
:102BCC000498FFF7A4FD83460198BBEB000000902E
:102BDC0000991AF1010002F067F9BBEB0A0005B08D
:102BEC00BDE8F08F2DE9F04F89B004000D00160000
:102BFC001F00DDF848805FF00009280000F019FD87
:102C0C0010F0010A00208246280000F010FD002878
:102C1C0017D1380002F0F3F98346280000F007FDC5
:102C2C005FFA8AFACDF808A009210191CDF800804D
:102C3C003B005A460100C9B23000C0B2FFF72EFE6D
:102C4C00D6E0280000F0FBFC01280ED0022827D08B
:102C5C00032840D0042872D0082800F08B80092863
:102C6C0000F0A4800A2850D0BCE0280000F0E9FC59
:102C7C000890280000F0DBFC01005FFA8AFACDF81E
:102C8C0008A009200190CDF800803B00089800684E
:102C9C000268C9B23000C0B2FFF700FE8146A6E060
:102CAC00280000F0D6FC0690280000F0C0FC5FFA6B
:102CBC008AFACDF808A009210191CDF800803B00DB
:102CCC00069909680A78C0B201003000C0B2FFF75B
:102CDC00D9FE81468BE0280000F0BDFC0590280051
:102CEC0000F0A5FC5FFA8AFACDF808A00921019141
:102CFC00CDF800803B0005990A68C0B20100300095
:102D0C00C0B2FFF7F9FE814671E0280000F0A5FC87
:102D1C000490280000F08BFC02005FFA8AFACDF8D0
:102D2C000CA009200290CDF804800097049BD2B22D
:102D3C003100C9B22000FFF718FF814657E0280088
:102D4C0000F085FC0790280000F071FC5FFA8AFA0D
:102D5C00CDF808A009210191CDF800803B0007991E
:102D6C0009680A680100C9B23000C0B2FFF7D1FD92
:102D7C0081463CE0280000F066FC8346280000F009
:102D8C0056FC5FFA8AFACDF80CA009210291CDF815
:102D9C0004800097DBF80030DBF804200100C9B296
:102DAC003000C0B2FFF72FFE814620E0280000F073
:102DBC004CFC8346280000F03AFC5FFA8AFACDF806
:102DCC000CA009210291CDF804800097DBF80030AB
:102DDC00DBF804200100C9B23000C0B2FFF7D4FD0B
:102DEC00814604E004494FF4007002F0FBF94846B8
:102DFC0009B0BDE8F08F0000442903000200130065
:102E0C001800431C007810F0F000102801D00020AE
:102E1C000AE01800431C0078012801D0002003E0D0
:102E2C005B1C187808700120704770B504000D0009
:102E3C0026003000461C007810F0F000102801D05D
:102E4C0000200CE03000461C0078002801D0002047
:102E5C0005E0761C300002F00BF82860012070BDF4
:102E6C0070B504000D0026003000461C007810F0F0
:102E7C00F000102801D000200EE03000461C007835
:102E8C00032801D0002007E0761C300001F0F0FF91
:102E9C0002F01EF82860012070BD2DE9F047824633
:102EAC000C0015001E00D146484610F101090078AF
:102EBC0010F0F000202801D0002030E0484610F13E
:102ECC0001090078002801D0002028E019F101093F
:102EDC0099F80000207019F1010999F80000607050
:102EEC0019F10109656060782178401A401C804610
:102EFC00B8F1000F03D50020804600200FE0002021
:102F0C00070047450ADAB74208DA484601F0B0FF35
:102F1C0028602D1D19F104097F1CF2E70120BDE882
:102F2C00F0872DE9F04782460C0015001E00D146B3
:102F3C00484610F10109007810F0F000202801D06B
:102F4C00002030E0484610F101090078032801D038
:102F5C00002028E019F1010999F80000207019F1FE
:102F6C00010999F80000607019F101096560607839
:102F7C002178401A401C8046B8F1000F03D5002080
:102F8C00804600200FE00020070047450ADAB742D0
:102F9C0008DA484601F0C1FF28602D1D19F104091B
:102FAC007F1CF2E70120BDE8F08702001300180037
:102FBC00431C007810F0F000102801D0002009E02C
:102FCC001800431C0078022801D0002002E05B1C92
:102FDC000B60012070472DE9F04704000D0092466C
:102FEC00280000F03AFB06001AF1020A0020804685
:102FFC0030680078804521DA0C20B16800FB08109D
:10300C0002790C20B16800FB08108168504601F071
:10301C00EDFE81460C20B16800FB08100168200011
:10302C0000F0E6FB0700002F05D04B4600220121E3
:10303C00380001F0FDF818F10108D9E7BDE8F08778
:10304C0070B58CB004000D001600280000F0F7FAE3
:10305C0001280CD0022817D0032823D004283BD0F9
:10306C0008284AD009285DD00A2828D06FE004A986
:10307C003000FFF7DAFE002805D0049B0022002167
:10308C00280001F0D5F867E002A93000FFF7B6FE82
:10309C00002806D09DF8083000220021280001F0FD
:1030AC00C7F859E003A93000FFF77FFF002805D0CF
:1030BC00039B01220021280001F0BAF84CE03000FB
:1030CC00461C007810F0F000802845D13200290011
:1030DC002000FFF780FF3FE00AA93000FFF7C0FE99
:1030EC00002809D00A9802F0FBF9CDE90001022270
:1030FC000021280001F09CF82EE02023D14A07A9DA
:10310C003000FFF7CAFE00280BD0089801909DF8FC
:10311C001D0000909DF81C3004220021280001F0B5
:10312C0087F819E02023C84A05A93000FFF7F9FEFB
:10313C0000280BD0069801909DF8150000909DF882
:10314C00143005220021280001F072F804E0BF4978
:10315C004FF4007002F046F80CB070BD70B58CB036
:10316C0004000D001600280000F069FA01280CD0AC
:10317C00022817D0032823D004283BD008284AD093
:10318C0009285DD00A2828D06FE004A93000FFF789
:10319C004CFE002805D0049B00220021280001F0E1
:1031AC0062F867E002A93000FFF728FE002806D07D
:1031BC009DF8083000220021280001F054F859E055
:1031CC0003A93000FFF7F1FE002805D0039B012274
:1031DC000021280001F047F84CE03000461C007834
:1031EC0010F0F000802845D1320029002000FFF7B4
:1031FC00F2FE3FE00AA93000FFF732FE002809D0AA
:10320C000A9802F06DF9CDE9000102220021280094
:10321C0001F029F82EE020238A4A07A93000FFF795
:10322C003CFE00280BD0089801909DF81D000090E2
:10323C009DF81C3004220021280001F014F819E03C
:10324C002023814A05A93000FFF76BFE00280BD024
:10325C00069801909DF8150000909DF814300522F9
:10326C000021280000F0FFFF04E078494FF40070C3
:10327C0001F0B8FF0CB070BD70B58CB004000D003F
:10328C001600280000F0DBF901280CD0022817D01A
:10329C00032823D004283BD008284AD009285DD025
:1032AC000A2828D06FE004A93000FFF7BEFD0028E3
:1032BC0005D0049B00220021280000F0EFFF67E0FE
:1032CC0002A93000FFF79AFD002806D09DF80830BF
:1032DC0000220021280000F0E1FF59E003A9300092
:1032EC00FFF763FE002805D0039B01220021280074
:1032FC0000F0D4FF4CE03000461C007810F0F000D9
:10330C00802845D1320029002000FFF764FE3FE001
:10331C000AA93000FFF7A4FD002809D00A9802F092
:10332C00DFF8CDE9000102220021280000F0B6FFF1
:10333C002EE02023434A07A93000FFF7AEFD0028FA
:10334C000BD0089801909DF81D0000909DF81C3042
:10335C0004220021280000F0A1FF19E020233A4AA2
:10336C0005A93000FFF7DDFD00280BD00698019071
:10337C009DF8150000909DF81430052200212800BE
:10338C0000F08CFF04E031494FF4007001F02AFF8B
:10339C000CB070BD2DE9FB4F82B09346039800F042
:1033AC004EF9401E032844D9C01F012841D9801E64
:1033BC0040D1584610F1010B007810F0F000802835
:1033CC0036D11BF1010B4FF4807002F01EF9040092
:1033DC00002C34D025009BF8000006001BF1010BDB
:1033EC0000208046B04518D2584601F041FD070038
:1033FC003805000D82460499504601F0B9FD81460E
:10340C003F0B3F035FEA0950000D07432F602D1D52
:10341C001BF1040B18F10108E4E7009433000322BC
:10342C000021039800F004FF200002F091F806E060
:10343C0005E004E005494FF4007001F0D3FE05B03F
:10344C00BDE8F08F505E0010D05D001044290300E1
:10345C002DE9F04F83B005000E00170098460C9C28
:10346C00DDF83490B07982463900280000F0C0F9BC
:10347C008346BBF1000F0BD0E4B20194CDF8008071
:10348C004B465246D2B259462800FEF7E0FB00E00C
:10349C000020BDE8FE8F2DE9F04F83B005000E0033
:1034AC00170098460C9CDDF83490B07982463900B0
:1034BC00280000F09DF98346BBF1000F0BD0E4B25D
:1034CC000194CDF800804B465246D2B259462800A2
:1034DC00FEF710FE00E00020BDE8FE8F2DE9F0475E
:1034EC0082B004000D0016001F00DDF82880A879BA
:1034FC0081463100200000F07BF98246BAF1000FC2
:10350C0008D0009743464A46D2B251462000FFF7F6
:10351C0069FB00E00020BDE8F687F8B504000D005B
:10352C0016003100200000F063F90700002F04D0D2
:10353C002A0039002000FFF783FDF1BDF8B5040027
:10354C000D0016003100200000F052F90700002F8A
:10355C0004D02A0039002000FFF700FEF1BDF8B5B9
:10356C0004000D0016003100200000F041F90700A6
:10357C00002F04D02A0039002000FFF77DFEF1BD9A
:10358C002DE9F04104000D0016001F003100200051
:10359C0000F02EF98046B8F1000F05D03B002A0050
:1035AC0041462000FFF7F6FEBDE8F08170B504003F
:1035BC000D00160032002900200002F0AFF82000A8
:1035CC0070BD50F8041B61B150F8042BD30744BFF5
:1035DC00A9F101039A18002342F8043B091FFAD100
:1035EC00EFE7704710B4020010780300521C08007B
:1035FC00411C0078834201D0012000E00020C0B2C1
:10360C00002802D05FF0FF300FE01800431E0028A6
:10361C000AD01000421C0C00611C00782478A042D7
:10362C00F3D05FF0FF3000E0002010BC7047007951
:10363C00704780797047C0687047806870474079E0
:10364C007047203070472030704720307047203052
:10365C007047203070472030704720307047010091
:10366C00002901D100200AE04879082801D1486AD4
:10367C0005E04879092801D1486A00E0002070472C
:10368C0070B504000D0000200600A06886420DDA1B
:10369C00E06850F8260081682800FFF7A3FF002897
:1036AC0002D12661300004E0761CEEE726615FF063
:1036BC00FF3070BD10B40300D31851181000421E17
:1036CC0000280AD41800431E0C00611E00782478D0
:1036DC00A042F3D05FF0FF3000E0002010BC704738
:1036EC002DE9F84304000D00280002F04FF8461CA9
:1036FC00B71E00208146A068814525DAE06850F8A5
:10370C0029008068804698F80000864219D12878F4
:10371C0098F80110884214D117EB08004078795DB5
:10372C0088420ED17A1EE06850F829008068411C4E
:10373C002800FFF7BFFF002803D1C4F810904846BB
:10374C0006E019F10109D6E7C4F810905FF0FF30DC
:10375C00BDE8F28370B402009068401E03000020A4
:10376C0005008B4201DBA94202DA5FF0FF3021E059
:10377C00AB420ED1D06850F825000079814202D1BD
:10378C001561280016E05FF0FF3010615FF0FF302C
:10379C0010E0581B022690FBF6F028180400D068A5
:1037AC0050F824000079884201DB2300E0E7601C1C
:1037BC000500DDE770BC70478168C06810EB8100C4
:1037CC0050F8040C7047F8B504000D0029002000D7
:1037DC00FFF756FF0600002E04D52000FFF7ECFF84
:1037EC00070003E0E06850F8260007003800F2BD3F
:1037FC00F8B504000D0029002000FFF7ABFF07000F
:10380C00002F04D52000FFF7D7FF060003E0E06887
:10381C0050F8270006003000F2BD70B504000025FA
:10382C00E06940780500012D11DB00200600AE4256
:10383C000DDAE06910EB86004068002805D0200006
:10384C00E16911EB860149688847761CEFE770BD8A
:10385C0070B504000D0026687068002804D0EDB225
:10386C00290020007268904770BD2DE9F0410400DA
:10387C000D0016002800002801D1002027E031009F
:10388C002000FFF7FDFE0700002F01D500201EE0F1
:10389C00E06850F827008046D8F81C0040780428CF
:1038AC0005D3711C1B4801F0AEFF00200FE0D8F8C7
:1038BC001C004078D8F81C1011EB80004560D8F83B
:1038CC001C004078401CD8F81C1048704046BDE8DD
:1038DC00F08138B504000D002800002801D100202B
:1038EC0016E0E0694078042806D3A068411C09481A
:1038FC0001F089FF00200BE0E0694078E16911EBF1
:10390C0080004560E0694078401CE1694870012006
:10391C0032BD0000FCED020010B50400E4B2200042
:10392C0001F0C2FF002802D15FF0FF300CE0E4B2DE
:10393C00200001F0CDFF002803D0B4F1300040B2DC
:10394C0002E0B4F1370040B210BD0100C9B2312918
:10395C0001D1012006E0C9B2302901D1002001E0DB
:10396C005FF0FF3070472DE9F0410400A04698F855
:10397C000000002801D1002060E098F80000032826
:10398C0004D218F1010001F0ACFF57E098F80100E7
:10399C00302825D198F8020001F0ABFF58281FD130
:1039AC0098F80000050008F2030800200600280023
:1039BC00451E002812D098F8000001F09AFF18F16B
:1039CC000108C0B2FFF7A8FF07007FB2002F01D596
:1039DC00300033E07FB217EB0616E8E730002DE03D
:1039EC0098F80100302825D198F8020001F081FFE9
:1039FC0042281FD198F80000050008F203080020A7
:103A0C0006002800451E002812D098F8000001F08E
:103A1C0070FF18F10108C0B2FFF797FF07007FB2E3
:103A2C00002F01D5300009E07FB217EB4606E8E71E
:103A3C00300003E018F1010001F053FFBDE8F08104
:103A4C002DE9F04104000D0014F120000600A069DE
:103A5C00002807D02A0001212000A369984780463E
:103A6C0040460FE02800FFF77EFF07007068874292
:103A7C0007DBB068B84204DB306807605FF0FF30EA
:103A8C0000E00020BDE8F081F8B504000D0014F151
:103A9C0020000600A069002807D02A000021200081
:103AAC00A3699847070038000BE07068854207DB74
:103ABC00B068A84204DB306805605FF0FF3000E0BE
:103ACC000020F2BD2DE9F04104000D00280001F0AA
:103ADC00FFF9070014F120000600A069002807D0A8
:103AEC002A0002212000A3699847804640460FE037
:103AFC003800716801F00AFF09D8B068390001F08C
:103B0C0005FF04D8306807605FF0FF3000E000204C
:103B1C00BDE8F0812DE9F04104000D00681C01F0B6
:103B2C0007FF01F00DFF804614F120000600A0698C
:103B3C00002807D02A0002212000A369984707001B
:103B4C00380010E04046716801F0E0FE0AD8B06819
:103B5C00414601F0DBFE05D83068C0F800805FF00C
:103B6C00FF3000E00020BDE8F081F0B583B0040028
:103B7C000D00009514F120000600A069002807D064
:103B8C00009A02212000A36998470700380010E032
:103B9C000098716801F0BAFE0AD8B068009901F07B
:103BAC00B5FE05D83068009901605FF0FF3000E089
:103BBC000020FEBD2DE9F04104000D0014F12000A1
:103BCC000600A069002807D02A0001212000A36963
:103BDC0098478046404610E02800FFF7C4FE0700D7
:103BEC00002F01D5002008E03079B84204DB3068A2
:103BFC0007705FF0FF3000E00020BDE8F081F8B501
:103C0C0004000D0014F120000600A069002807D064
:103C1C002A0000212000A3699847070038000CE017
:103C2C00002D01D5002008E03079A84204DB306873
:103C3C0005705FF0FF3000E00020F2BD2DE9F84385
:103C4C0004000D005FF0000914F120000600A069CB
:103C5C00002807D02A0001212000A36998470700FB
:103C6C00380030E0287831680978884212D1012078
:103C7C0080462878401C80450EDA18F8050031681B
:103C8C0018F80110884202D00120814604E018F196
:103C9C000108EEE70120814670682978891C88426A
:103CAC0010DB5FFA89F9B9F1000F0BD030680028EE
:103CBC0005D02878821C29003068FFF777FC5FF06C
:103CCC00FF3000E00020BDE8F2832DE9F84F04003E
:103CDC000D0016001F000020834614F120008046C2
:103CEC00002D01D5584635E0D8F80400401EB042EE
:103CFC0001DA58462EE0AE4201DA58462AE0A069B5
:103D0C0000280AD0009733002A0005212000D4F89F
:103D1C0018C0E047834658461CE0AA46564518DBB7
:103D2C00386881463F1D4846D8F8081001F0EEFD72
:103D3C000CD8D8F80C00494601F0E8FD06D8D8F8A4
:103D4C00000040F82A905FF0FF3083461AF1010A18
:103D5C00E4E75846BDE8F28F2DE9F84F04000D005A
:103D6C0016001F000020834614F120008046002D11
:103D7C0001D5584631E0D8F80400401EB04201DAB3
:103D8C0058462AE0AE4201DA584626E0A0690028DF
:103D9C000AD0009733002A0004212000D4F818C060
:103DAC00E0478346584618E0AA46564514DB386867
:103DBC0081463F1DD8F8080081450ADBD8F80C0075
:103DCC00484506DBD8F8000040F82A905FF0FF3039
:103DDC0083461AF1010AE8E75846BDE8F28F2DE94F
:103DEC00F84F04000D00160000208146A069002841
:103DFC000AD03300EDB22A0003212000D4F818C0F9
:103E0C00E047814648464EE014F12000070038791F
:103E1C00EDB2A84201D23879050000208246EDB2FD
:103E2C00AA451BDA56F82A000005000D83465946B0
:103E3C002068FFF7DDFC8046B8F1000F01D1484641
:103E4C0031E098F80500401E012802D9C01E052853
:103E5C0002D81AF1010AE2E7484624E038680570F6
:103E6C0000208246EDB2AA451CDA0C20B96800FB92
:103E7C000A1031680905090D01600C20B96800FBB6
:103E8C000A103168090B01710C20B96800FB0A108B
:103E9C003168090D8160361D5FF0FF3081461AF1E3
:103EAC00010ADFE74846BDE8F28F2DE9F04F83B0F9
:103EBC0004008A4615001E005FF00009002C01D199
:103ECC0000200DE1A079C00706D55FFA8AFABAF195
:103EDC00000F01D1002003E16079012815D0C0F05A
:103EEC00FE80032841D028D3052874D049D3072855
:103EFC0000F0AD80C0F09380092800F0D180C0F0B4
:103F0C00BE800A2800F0DD80E9E0EDB2002D08D17A
:103F1C0030680700361D39002000FFF7B5FD8146DB
:103F2C000AE0EDB2012D07D130688046361D4146BE
:103F3C002000FFF785FD8146D1E0EDB2002D08D1C0
:103F4C0030680700361D39002000FFF758FE814607
:103F5C000AE0EDB2012D07D130688046361D41468E
:103F6C002000FFF727FE8146B9E0EDB2012D07D105
:103F7C0030688046361D41462000FFF75FFE8146C3
:103F8C00ADE0EDB2002D08D130680700361D3900C8
:103F9C002000FFF797FD81461CE0EDB2012D08D102
:103FAC0030688046361D41462000FFF7B3FD814640
:103FBC0010E0EDB2022D0DD1F61D36F00706D6E954
:103FCC00000101F0BDFC8346083659462000FFF77E
:103FDC00CCFD814683E0EDB2002D08D1306807009E
:103FEC00361D39002000FFF76DFD814616E0EDB25D
:103FFC00012D08D130688046361D41462000FFF760
:10400C0089FD81460AE0EDB2022D07D13068834666
:10401C00361D59462000FFF7A8FD81465FE0EDB242
:10402C00002D08D130680700361D39002000FFF73D
:10403C002BFD81460AE0EDB2012D07D13068804698
:10404C00361D41462000FFF7FBFC814647E0EDB2F0
:10405C00002D08D130680700361D39002000FFF70D
:10406C0013FD81460AE0EDB2012D07D13068804680
:10407C00361D41462000FFF7E3FC81462FE03068F7
:10408C008346361D30680190361D30680090361D11
:10409C00009B019A59462000FFF75EFE81461EE008
:1040AC0030688346361D30680090361D30680190AC
:1040BC00361D019B009A59462000FFF706FE8146EB
:1040CC000DE030688346361D30680090361D009A2E
:1040DC005946C9B22000FFF782FE8146FFE74846E9
:1040EC00BDE8FE8F2DE9F04104000D001600002CF8
:1040FC0001D1002055E0A079C00704D5EDB2002D08
:10410C0001D100204DE0607901280ED0022812D098
:10411C00032816D004281AD006281ED0082822D02E
:10412C0009282CD00A2836D038E031682000FFF757
:10413C00ABFC070034E031682000FFF760FD07009E
:10414C002EE031002000FFF779FD070028E03168F0
:10415C002000FFF70AFD070022E031682000FFF77E
:10416C0093FC07001CE0B046D8F8043098F8012006
:10417C0098F800102000FFF7EFFD070010E0B046A4
:10418C00D8F8043098F8012098F800102000FFF7B8
:10419C009CFD070004E00020070001E00020070060
:1041AC003800BDE8F08138B504002568A079800797
:1041BC0009D5E069007850F00100E1690870287EAB
:1041CC0050F0010028762000FFF727FBE06900780B
:1041DC00C00706D56868002803D001212000FFF72E
:1041EC0037FB31BD10B5040002212000FFF730FB76
:1041FC0010BD38B504002568A079800709D5E069A1
:10420C00007850F00100E1690870287E50F0010040
:10421C0028762000FFF701FBE0690078C00706D57F
:10422C006868002803D000212000FFF711FB31BD86
:10423C0008B42DE9F84104000D00160007A88046CB
:10424C0043463200D2B22900C9B22000FFF72DFE3E
:10425C000700002F02D02000FFF7A5FF3800BDE8B3
:10426C00F2015DF808FB08B42DE9F84104000D00DB
:10427C00160007A8804643463200D2B22900C9B2C4
:10428C002000FFF712FE0700002F02D02000FFF7DE
:10429C00A9FF3800BDE8F2015DF808FB08B42DE970
:1042AC00F84104000D00160007A880464346320072
:1042BC00D2B22900C9B22000FFF7F7FD0700002F8A
:1042CC0002D02000FFF795FF3800BDE8F2015DF841
:1042DC0008FBF8B504000D00160032002900C9B225
:1042EC002000FFF7FFFE0700002F02D02000FFF791
:1042FC005AFF3800F2BDF8B504000D00160032006C
:10430C002900C9B22000FFF7EDFE0700002F02D0F4
:10431C002000FFF767FF3800F2BD70B5040020796C
:10432C00002804D1206A2168896801608BE06079DB
:10433C0001280ED0022813D0032818D004282BD023
:10434C00062822D008282ED009283DD00A284CD087
:10435C0079E014F120010800C1680068016072E086
:10436C0014F1200108004179006801706BE014F130
:10437C0020000500A868002806D02868002803D073
:10438C00A968286801F024FB5DE014F12001080005
:10439C0001690068016056E014F120010800C16851
:1043AC00006801604FE014F120021000002211009F
:1043BC004268914207DA026952F82120036843F8F7
:1043CC002120491CF4E73EE014F1200210000022E9
:1043DC0011004268914207DA026952F82120036801
:1043EC0043F82120491CF4E72DE014F120031800B8
:1043FC00C368190000231A0003799A421FDA0C23B0
:10440C00856803FB02530C258E6805FB02652D683D
:10441C001D600C23856803FB02530C258E6805FB7D
:10442C0002652D791D710C23856803FB02530C2545
:10443C008E6805FB0265AD689D60521CDCE709794E
:10444C0000680170FFE770BD30B5020000235079A1
:10445C0001280AD002281BD0032867D0082825D0B1
:10446C00092842D00A2862D062E012F1200108002B
:10447C00016809684468A14204DB81680468246807
:10448C00A14204DAC1680468216001210B004FE0ED
:10449C0012F120010800017904682478A14204D2A9
:1044AC0041790468217001210B0041E012F12004D4
:1044BC002000002421004468A14215DA046854F855
:1044CC0021408568AC4205DBC468056855F821506D
:1044DC00AC4207DA046954F82140056845F82140DC
:1044EC0001242300491CE6E722E012F1200004001D
:1044FC00002005006068854217DA206850F8250016
:10450C00A16801F087FA06D3E068216851F82510FC
:10451C0001F080FA07D2206950F82500216841F893
:10452C002500012003006D1CE4E701E000E0FFE73B
:10453C001800C0B230BDF8B504005FF0FF356079EB
:10454C0001280ED0022817D0032868D004281ED0CA
:10455C00062840D0082826D0092847D00A2870D031
:10456C00B3E014F12001080001680968C2689142A7
:10457C0001D100210D00ABE014F12001080001680D
:10458C0009784279914201D100210D00A0E014F18B
:10459C002000020010680068D16801F04DFA01D1CA
:1045AC000020050094E014F120000100002002001E
:1045BC00486882420CDA086850F822000B6953F8FC
:1045CC002230984202D05FF0FF3082E0521CEFE7BD
:1045DC00002005007CE014F1200108000168096846
:1045EC000269914201D100210D0071E014F120000B
:1045FC00020000200300506883420DDA106850F866
:10460C002300116951F8231001F016FA02D05FF063
:10461C00FF305EE05B1CEEE70020050058E014F173
:10462C0020000600B06800280AD03068002807D0A7
:10463C00B168306801F00EFA002801D100200500A5
:10464C0046E014F120000100C868020000200300BD
:10465C00087983422EDA0C208E6800FB0360006818
:10466C000C26976806FB03763668B04202D05FF0E2
:10467C00FF302EE00C208E6800FB036000790C26C6
:10468C00976806FB03763679B04202D05FF0FF30B4
:10469C001FE00C208E6800FB036080680C26976876
:1046AC0006FB0376B668B04202D05FF0FF3010E034
:1046BC005B1CCDE7086800781679B04202D05FF039
:1046CC00FF3006E00020050002E05FF0FF3000E064
:1046DC002800F2BD70B504000D001600E0690078EA
:1046EC00800701D5002019E0A079C00701D5002072
:1046FC0014E0A079800708D5E069007850F001003B
:10470C00E16908702868401C2860E069007850F066
:10471C000200E16908702000FFF796FE70BD007979
:10472C00704710B4DFF86445D4E90023002902D1A6
:10473C00C0E9002337E04C79012C0CD0022C10D0AE
:10474C00032C14D0042C17D0082C1BD0092C1ED0F1
:10475C000A2C21D025E011F12004246824682200C1
:10476C001FE011F1200424682478220019E011F1D3
:10477C0020042468220014E011F120042468246829
:10478C0022000EE011F120042468220009E011F14E
:10479C0020042468220004E011F12004A468220003
:1047AC00FFE7C0E9002310BC70470100002200297C
:1047BC0001D1002031E0487901280CD002280FD01B
:1047CC00032812D0042815D0082818D009281BD08B
:1047DC000A281ED020E011F12000006802001BE026
:1047EC0011F120000068020016E011F120000068B1
:1047FC00020011E011F12000006802000CE011F140
:10480C0020000068020007E011F12000006802009F
:10481C0002E000200200FFE710007047F8B504002A
:10482C000D00002729002000FEF75AFF0600002E7D
:10483C0002D50020070003E0E06850F826000700CE
:10484C003800F2BDF8B504000D0016002900200058
:10485C00FEF7B9FF0700002F04D032000121380009
:10486C00FFF749FDF1BDF0B583B004000D00002049
:10487C000190002000906560DFF81404DFF8141438
:10488C000968016000200600A06886420EDA00AAC2
:10489C0001A9E06850F82600FFF71CFF002803D0A0
:1048AC00DFF8F40301210170761CEDE7E068006885
:1048BC000079070000200600A06886420CDAE06848
:1048CC0050F826000079B84206DBE06850F8260064
:1048DC0000790700761CEFE7F7BD38B5040000201F
:1048EC000500A068854206DAE06850F82500FFF75D
:1048FC0014FD6D1CF5E731BD2DE9F04182B00400CB
:10490C000D001600E4B22000012808D0022810D0B7
:10491C0003282AD0082834D0092833D033E0E8689B
:10492C000090AB686A6828680168DFF87003B047CC
:10493C0032E02F007B793A7938680178DFF8600330
:10494C00B04700208046387940450DDBB86850F8F8
:10495C002800002805D0B86850F82800411C4CA04D
:10496C00B04718F10108EEE716E02F003868002870
:10497C0006D0B868431C7A683868411CC948B047EF
:10498C000AE009E008E0C2480068002804D0C649E3
:10499C001020BF4A12689047BDE8F3812DE9F04121
:1049AC0004000D001600E4B22000022802D00328F7
:1049BC0016D01DE02F0000208046387940450EDBD4
:1049CC00B86850F82800002806D04246B86850F85D
:1049DC002800411CB548B04718F10108EDE707E085
:1049EC002F003868002802D07968B148B047FFE73B
:1049FC00BDE8F08170B504000D001600E80701D584
:104A0C00AC4900E0AC4999A0B047A00701D598A1EA
:104A1C0000E098A195A0B047E00701D5A74900E0B8
:104A2C00A74992A0B047680701D5A64900E0A6495E
:104A3C008EA0B04770BD38B504000D00A068421CB4
:104A4C002179A248A847E068411C88A0A847607952
:104A5C009F4951F8201085A0A8472A00E0690178E9
:104A6C00A079FFF7C7FF2A0014F120016079FFF746
:104A7C0043FF81A0A84731BD38B504000D007EA0CE
:104A8C00A8472A0014F120016079FFF787FF31BD98
:104A9C002C2573002DE9F04182B004000D00002C90
:104AAC0000F0E280607901280DD0022812D0032892
:104ABC001DD0042822D008284AD0092858D00A280A
:104ACC0000F08980CEE014F12006306801686BA0FC
:104ADC00A847C9E014F120063068027830680078E5
:104AEC00B16851F82000411C7A48A847BCE014F189
:104AFC0020063068411C62A0A847B5E014F12006DE
:104B0C003068006800F0ECFC31F000410022724B80
:104B1C0000F0C2FF13D23068006800F0E1FC31F005
:104B2C00004101226D4B00F0CFFF08D830680068BF
:104B3C0000F0D6FC02000B0052A0A84707E030683A
:104B4C00006800F0CDFC02000B004FA0A8478BE0E2
:104B5C0014F12007002006007868864207DA3868CE
:104B6C0050F8262031005E48A847761CF4E77BE01D
:104B7C0014F1200700200600786886422ADA38688B
:104B8C0050F8260000F0ACFC31F0004100F0D8FEEB
:104B9C0080464046534900F03DFF0FD240465249F3
:104BAC0000F0B4FE0AD8386850F8260000F098FCE3
:104BBC0002000B0031004D48A84709E0386850F856
:104BCC00260000F08DFC02000B0031004848A8477D
:104BDC00761CD1E748E014F12000060032793068E9
:104BEC0001784448A847002080463068007880450A
:104BFC0037DA0C20B16800FB081001682068FEF75A
:104C0C00F7FD0700002F16D03800FEF716FD0C211B
:104C1C00B26801FB0821896800910C21B26801FB84
:104C2C0008210B79421C0C20B16800FB08100168AC
:104C3C003148A84712E00C20B16800FB08108068CE
:104C4C0000900C20B16800FB081003792B4A0C2053
:104C5C00B16800FB081001682748A84718F1010843
:104C6C00C3E701E01048A847BDE8F38125732C0089
:104C7C00524F4D0052414D000D0A000025640000BA
:104C8C00257300002566000025650000E02A03005E
:104C9C00A4730010800F0010917700106C100300AB
:104CAC00641B0300701B03007C1B0300881B0300A8
:104CBC007C100300E82A0300F02A0300941B030075
:104CCC00A01B0300F82A0300AC1B0300002B0300FD
:104CDC00380E0010082B03000088C3400000F03F82
:104CEC00B81B030000401C460100803FC41B03009E
:104CFC00D01B0300A801030058F30200102B030083
:104D0C002DE9F04110EBD1073C0011F007073D00F5
:104D1C00002D49D0D5F10807BB421ED22778DFF809
:104D2C0048C113F80CC0D5F1080EBEEB030E1CFAEB
:104D3C000EFC37EA0C0727702778DFF82CC113F824
:104D4C000CC01CEA020CD5F1080EBEEB030E1CFACB
:104D5C000EFC5CEA0707277046E0D3F12007BA4047
:104D6C0027783E00F6B26F42DFF8FCC017EB0C0759
:104D7C003F7A36EA070715F1180C32FA0CFCD5F11C
:104D8C00000EDFF8E4801EEB080E9EF808E01EEA29
:104D9C000C0C5CEA07072770641CD5F10807DB1BB9
:104DAC00D5F10807BA4002E0D3F12007BA40082B2E
:104DBC0005D3170E2770641C1202083BF7E7002B73
:104DCC0012D0120E2778DFF8A4C013F80CC037EA03
:104DDC000C0727702778DFF894C013F80CC01CEA76
:104DEC00020C5CEA07072770BDE8F081F0B4030001
:104DFC00002013EBD106340011F007063500002D0E
:104E0C0020D0D5F10806B2420FD22678164FD75DC6
:104E1C00D5F1080CBCEB020C17FA0CF73E40300035
:104E2C00D5F10806B61A30411CE026786F42DFF83F
:104E3C0038C017EB0C073F7A3E403000641CD5F1AC
:104E4C000806921B082A05D3000226783043641CFE
:104E5C00083AF7E7002A05D090402678D2F10807E7
:104E6C003E413043F0BC70472C290300202903003D
:104E7C0001784278120452EA0161827851EA0221E7
:104E8C00C07808437047C1788278120452EA0161F5
:104E9C00427851EA02210078084370470178407843
:104EAC0050EA012000B2704700F203000170401E6E
:104EBC000A0A0270401E0A0C0270401E0A0E027092
:104ECC007047401C0170401E89B20A0A027070477C
:104EDC0082B001000091009802B0704782B00100CE
:104EEC000091009802B0704782B0010000910098C8
:104EFC0002B0704738B504000D002800FFF7F4FF2E
:104F0C0004F203042070641E010A2170641E010C5B
:104F1C002170641E010E217031BD38B5040020785B
:104F2C006178090451EA0060A17850EA0120E17827
:104F3C00084305002800FFF7CBFF32BD10B5040075
:104F4C0000F0DAFD002801D0012000E0002010BDA7
:104F5C0038B504002000FFF7F1FF0500002D01D546
:104F6C00002002E0014850F8250032BD6C0F001003
:104F7C0070B504000D002800FFF7EAFF0600002EB4
:104F8C0001D120000CE0B460F52C01D3F52007E032
:104F9C003068401EA04201D2F52001E0F068205C90
:104FAC0070BD38B504002000FFF7D2FF0500002DBE
:104FBC0001D1F5200BE0A868401CA860A8682968FE
:104FCC00884201D30020A860A868E968405C32BD23
:104FDC0038B504002000FFF7BBFF0500002D01D100
:104FEC00F5200BE0A868401EA860A868002802D530
:104FFC002868401EA860A868E968405C32BD38B5D6
:10500C0004002000FFF7A4FF0500002D01D10020B3
:10501C0000E0286832BDF8B504000D002800FFF749
:10502C0097FF0600002E01D120000DE000200700A4
:10503C003068874207D2F068385C844201D138006E
:10504C0002E07F1CF4E72000F2BD0268531C0360F1
:10505C0011707047DFF8280400787047DFF82414CB
:10506C0009780F2906D2DFF81C140978DFF8182408
:10507C0042F82100DFF80C140978102906D2DFF869
:10508C0004140978491CDFF8FC2311707047DFF811
:10509C00F4130978012906D3DFF8E8130978491EBF
:1050AC00DFF8E0231170DFF8DC130978DFF8D82380
:1050BC0052F821100800704780B5DFF8C40300785F
:1050CC00002808D1DFF8B80301210170DFF8BC0318
:1050DC000068FFF7C3FFDFF8B4030021016001BDD6
:1050EC0080B5DFF89C030078002808D0FFF7CFFFCD
:1050FC00DFF898130860DFF888030021017001BD08
:10510C0038B50400DFF878030078002807D0FFF7E3
:10511C00BEFF050025432800FFF7A0FF06E0DFF8DF
:10512C006C0300682043DFF86413086031BD38B5A8
:10513C000400DFF84C030078002807D0FFF7A7FF26
:10514C000500A5432800FFF789FF06E0DFF83C03C4
:10515C000068A043DFF83413086031BD0CB4F8B517
:10516C0004000D00C9480068044216D006A80600C9
:10517C0000AA0021C648006800F02BFD320029006F
:10518C00C44800F0D1FD070001223900C14801F0EC
:10519C00A9F8BF48006800F099FDF1BC5DF80CFB64
:1051AC000CB4F8B504000D00B8480068044216D0E1
:1051BC0006A8060000AA0021B548006800F009FD09
:1051CC0032002900B34800F0AFFD0700002239007F
:1051DC00B04801F087F8AE48006800F077FDF1BCEC
:1051EC005DF80CFB0CB4F8B504000D00A748006882
:1051FC00044216D006A8060000AA0021A6480068A2
:10520C0000F0E7FC32002900A44800F08DFD0700F7
:10521C0001223900A14801F037FD9F48006800F0D9
:10522C0055FDF1BC5DF80CFB0CB4F8B504000D0099
:10523C0096480068044216D006A8060000AA002171
:10524C009548006800F0C5FC32002900934800F036
:10525C006BFD070000223900904801F015FD8E48C7
:10526C00006800F033FDF1BC5DF80CFB38B50400B0
:10527C00200001F0BAFE05002800FFF741FF31BD08
:10528C0038B50400200001F0B0FE05002800FFF73F
:10529C004EFF31BD38B5040000200500804810EBEE
:1052AC00C5004068002811D07D4810EBC50040684F
:1052BC0076490968084207D0794850F83500411CF6
:1052CC006CA0D4F87C2290476D1CE7E76AA0D4F858
:1052DC007C12884731BD2DE9F8430400200001F011
:1052EC0084FE8046200002F0AAFF200001F07DFE23
:1052FC00814618F10100404259F820000600761C46
:10530C007FF0030000FB089007003A00310065486D
:10531C0000F00AFD050001222900624801F0B4FCEE
:10532C0018F101007FF0030101FB0091200001F056
:10533C0055FE200002F08BFFBDE8F1832DE9F0470C
:10534C000400200001F051FE0600200001F04DFE8B
:10535C008146200002F073FF200001F046FE8246D9
:10536C0019F1010040425AF8200007007F1C7FF021
:10537C00030000FB09A0804642463900300000F0D3
:10538C00D3FC050019F101007FF0030101FB00A122
:10539C00200001F023FE200002F059FF3100200014
:1053AC0001F01CFE2900200001F018FEBDE8F0877A
:1053BC002DE9F0410600300001F017FE040020003A
:1053CC000700380000F08CF804000D002000804627
:1053DC004146300001F002FE280080464146300074
:1053EC0001F0FCFDBDE8F08180B52648002101707C
:1053FC0026482D4901602D492D4801F09AF92B4979
:10540C002B4800F075FD01BD38B5040000200500E7
:10541C00234810EBC500406800280BD0204850F8FA
:10542C0035201F4810EBC5004168200004F0B2FE87
:10543C006D1CEDE71F4A2049200004F06BFE1F4A4B
:10544C001F49200004F066FE1E4A1F49200004F08C
:10545C0061FE0AA21D49200004F05CFE1C4A1D4995
:10546C00200004F057FE1C4A1C49200004F052FE98
:10547C0031BD0000257320000D0A0000733E64004E
:10548C009377001092770010486100107C0F001089
:10549C00687600106C510010647600106C5200108D
:1054AC00287A0200D05E001050100002C550000097
:1054BC00ED500000182B030079520000202B030044
:1054CC008D520000282B0300A1520000BD53000098
:1054DC00302B0300E3520000382B0300495300002B
:1054EC005FF0FF0C1CEAD05114BF614506E0C110FF
:1054FC00400721F0E04101F16051704779B900F0AB
:10550C00004100020AD0B0FA80FC00FA0CF001F164
:10551C006051A1EB0C5101EBD021400570474102C9
:10552C000CBF40F4E0016FF0000100207047010057
:10553C0038B504000D00002D01D15F2007E0002CD0
:10554C0001D1602003E02900200005F0D8F932BD1C
:10555C0070B504000025002C01D1002029E054F87E
:10556C00080C0600002E01D1002022E005F012FAF2
:10557C00050054F8040C002804D1280005F00EFA9C
:10558C00002016E054F8040C401E44F8040C54F8A7
:10559C00040C002809D1280005F000FAB4F1080128
:1055AC0054F8080CFFF7C4FF03E0280005F0F6F9E7
:1055BC00002070BDFEE702000A600120486011F176
:1055CC00080070470100002906D001290AD00229E1
:1055DC000ED0042912D017E046490968491C454AE7
:1055EC00116011E044490968491C434A11600BE001
:1055FC0042490968491C414A116005E04049096863
:10560C00491C3F4A1160FFE7704770B582B0040037
:10561C0000200500032D2CDA18203A4900FB051058
:10562C008068A04223DB00A91820364A00FB052025
:10563C00406805F045F906009DF80000002816D1D9
:10564C001820304900FB0510C2680021300005F01D
:10565C00F7F92800FFF7B6FF31001820294A00FBA4
:10566C0005204068FFF7A7FF0600300002E06D1C24
:10567C00D0E7002076BD38B540F6E83005F0E7FFFE
:10568C000400214840F6E8310160002C01D1FFF7FD
:10569C0091FF00200500032D29DA1820194900FB81
:1056AC00051002690021200005F0CAF900AB182092
:1056BC00144900FB0510C2681820124900FB0510A4
:1056CC004169200005F0BCF818210E4A01FB0521A8
:1056DC0048609DF80000002801D0FFF76BFF1820F0
:1056EC00084900FB0510006904196D1CD3E731BD96
:1056FC0000000000F8750010FC750010007600101A
:10570C0004760010B40C001008760010010051F85B
:10571C00082C10008068083880B270474AB38B0799
:10572C0007D0521E11F8013B00F8013B21D08B072A
:10573C00F7D183071ED1103A07D330B4B1E8381033
:10574C00103AA0E83810F9D230BC530724BFB1E8A6
:10575C000810A0E8081044BF51F8043B40F8043B83
:10576C00D20724BF31F8022B20F8022B44BF0B7850
:10577C0003707047083A07D3B1E80810083A40F8AC
:10578C00043B40F804CBF7D25307E4E700F10103E4
:10579C00810704D010F8011B89B18107FAD1026886
:1057AC00B2F10131914311F0803F04BF50F8042F46
:1057BC00F6E710F8011B11B110F8011BFBE7C01A3A
:1057CC00704701000EB478B5040005A805002E48FA
:1057DC000078002814D000AA00212C48006800F0A2
:1057EC00F8F92A0021002A4800F09EFA060001224E
:1057FC003100274801F048FA2448006800F066FAA6
:10580C0071BC5DF810FB0EB478B5040005A805005A
:10581C0000AA00211F48006800F0DBF92A002100D3
:10582C001D4800F081FA0600012231001A4800F0F0
:10583C0059FD1848006800F049FA71BC5DF810FB7E
:10584C0080B5012000F09CF91049086000AA1349AA
:10585C000E48006806F064FA012000F091F90D4939
:10586C00086000AA0E490B48006806F059FA074870
:10587C000068002803D007480068002802D10948B6
:10588C0006F024FE01BD0000C37700106476001002
:10589C006C5500106876001040010820F8340300A5
:1058AC00003503001429030010B50400612C01DB42
:1058BC00672C08DB412C01DB472C04DB200000F0BB
:1058CC0007F8002801D0012000E00020C0B210BD74
:1058DC00302803DB3A2801DA012000E00020C0B2B6
:1058EC00704710B504000A220021200006F088FE43
:1058FC0010BD10B50446012006F0ACFEA4F1610009
:10590C001A2838BF203C204610BD26004FF0807C62
:10591C001CEB400F94BF1CEB410F05E040EA010C5F
:10592C005FEA4C0C01D28142704718BF8842704725
:10593C0010B5040000220021200006F03DFF10BD30
:10594C004FEAF17CBCF1E04C2CBFBCF5001F11E020
:10595C005FEA4C0C34BFBCF17F5F2EE05FEA9C0C1D
:10596C004FEA0C1C4FEA3C0CC10071F100414CEBAE
:10597C0050707047C90241EA5051C00218BF41F043
:10598C00010141F000414FEA6C50C0F1090021289F
:10599C0010D240EACC7CCCF1200C11FA0CF070F156
:1059AC000040CCF1200C21FA0CF00CF0004C40EB38
:1059BC000C0070474FEACC707047490011F5001F7E
:1059CC0004D84FEACC10FF30C0057047C817704799
:1059DC005FEA000C830706D011F8013B00F8013B8D
:1059EC00B3B18307F8D10A68B2F1013323EA020399
:1059FC0013F0803F02BF40F8042B51F8042FF3E75B
:105A0C0011F8013B00F8013B13B111F8013BF9E728
:105A1C00604670474FF0807C1CEB400F94BF1CEB32
:105A2C00410F05E040EA010C5FEA4C0C01D28842C0
:105A3C00704718BF8142704740EA010C5FEA4C0C7A
:105A4C0007D0884205D14FEA400C1CF1807F98BFEB
:105A5C0080427047820707D010F8012B11F8013BE8
:105A6C00BAB19A42F6D014E002680B689A42A2F1DD
:105A7C00013301BF934313F0803F50F8042F51F8CA
:105A8C00043FF3D010F8012B11F8013B0AB19A42F4
:105A9C00F8D0D01A704701004FF4001C1CEB410FDA
:105AAC0094BF1CEB430F09E041EA030C50EA4C0C89
:105ABC0052EA0C0C03D2994208BF9042704714BFB3
:105ACC008B428242704714004FF4001C1CEB410FB8
:105ADC0094BF1CEB430F09E041EA030C50EA4C0C59
:105AEC0052EA0C0C03D28B4208BF8242704714BF9F
:105AFC00994290427047F8021C480068C00001D4DB
:105B0C00FF2000E00020704770B4C0B2002806D01F
:105B1C0002280AD006D304280DD009D30EE0144C69
:105B2C0023000CE0134C230009E0134C230006E087
:105B3C00114C230003E0114C230000E014E0C9B227
:105B4C00102901D310391B1D1C680325C9B24E0046
:105B5C00B540AC431C601C68D2B212F00305C9B24C
:105B6C004E00B5402C431C6070BC704794C009209B
:105B7C0000C0024008C0024010C0024020C00240D9
:105B8C0070B5040000264D480078002801D0002094
:105B9C001EE004F0FFFE0600494800680500484876
:105BAC000068002804D046480068406844490860F2
:105BBC00300004F0F3FE002D09D0032028702C8156
:105BCC00002068603CA02861280006F090FA2800AC
:105BDC0070BDF8B504000D001600002720780328CE
:105BEC0002D00120307064E034480078002802D0E4
:105BFC00022030705DE033480078002802D00D2080
:105C0C00307056E004F0C6FE07002089002808D04A
:105C1C002089401E2081380004F0C0FE0020307026
:105C2C0047E02948006890F82C0050F00100264904
:105C3C00096881F82C0024480068002180F82D1098
:105C4C00214800688562200006F0CBF9380004F08A
:105C5C00A5FE06F018FB04F09DFE07001A4800682C
:105C6C0090F82D00002802D0022803D005E0002077
:105C7C00307009E00E20307006E0210012480068F8
:105C8C0006F0F6F90A2030700F480068002180F801
:105C9C002C100D480068002180F82D100A4800686F
:105CAC000021C1610848006800210162380004F03D
:105CBC0075FEF1BD000000003F000000B57700103C
:105CCC0010760010B67700101C76001070B504002A
:105CDC0000252078032801D0012024E004F05AFE8E
:105CEC000500A07A00280DD00023012200212000FD
:105CFC0006F01AF90600280004F050FE06F0C3FA6C
